:1000000002117930821EE553640945527006F5529B
:10001000F55380080553E5537002055212029B30D8
:0500200082E180FB22DB
:10002B0002002EC0E0C0F0C083C082C0D075D010DB
:10003B00C2CF75CDD875CCEFE5574556600201CFD1
:10004B00F564756501E567640145667036FFFEFD75
:10005B00FCAB5DAA5CA95BA85AD3121027401AE52A
:10006B005D940AF55DE55C9400F55CE55B9400F549
:10007B005BE55A9400F55A804B7556007557017F16
:10008B0001803CE567640245667039FFFEFDFCAB01
:10009B0061AA60A95FA85ED3121027401AE561948C
:1000AB000AF561E5609400F560E55F9400F55FE5A6
:1000BB005E9400F55E800D7556007557017F027ECC
:1000CB00001203BBD0D0D082D083D0F0D0E032303E
:1000DB00814E7566007567027FC07E001204FF7B40
:1000EB00FF7A06794C120323120183E557455670AC
:1000FB002AE55375F008A4246CF812103DE47BE854
:10010B007A03F9F8120FD8E55D2FF55DE55C3EF546
:10011B005CE55B3DF55BE55A3CF55A3081B180FB04
:10012B00308554E56764024566704CF5667567016A
:10013B007FC0FE1204FF7BFF7A06794C1203231259
:10014B000183E5574556702AE55375F008A4246CD6
:10015B00F812103DE47BE87A03F9F8120FD8E56149
:10016B002FF561E5603EF560E55F3DF55FE55E3CD3
:10017B00F55E3085AB80FB22AF67AE668E2A8F2B88
:10018B00C3E52A64809480407F752C00752D01ACEB
:10019B002CAD2DAE2AAF2B120FA2C3EF940AEE6437
:1001AB008094804011AE2CAF2D7C007D0A120F90F5
:1001BB008E2C8F2D80D9D3E52D9400E52C64809463
:1001CB00804045AC2CAD2DAE2AAF2B120FA28E2E3C
:1001DB008F2FE52F2430FFE4352EFEE4753501F526
:1001EB0034F533F53212052CAE2AAF2BAC2CAD2DDA
:1001FB00120FA28C2A8D2BAE2CAF2D7C007D0A12F8
:10020B000FA28E2C8F2D80AE22208302419AE557B0
:10021B00F47003E556F47065AF53EF75F008A42442
:10022B006CF8121049C000EF75F008A42468F8129E
:10023B00103DD000EF2BFFEE3AFEED39FDEC38FC14
:10024B00E47BE87A03F9F8120FD88F1B8E1A8D19FD
:10025B008C188F5D8E5C8D5B8C5A8F618E608D5F81
:10026B008C5EE4F556F557D2CA7FC0FE1204FF7BB5
:10027B00FF7A06794C120323120183800FE5574551
:10028B00567F0070027F017556008F572083FD2229
:10029B00AF53AE528E188F191204FB7F807E001263
:1002AB0004FFAF19EF75F008A4246CF8121049C0C5
:1002BB0000EF75F008A42468F812103DD000120866
:1002CB00007BFF7A06793B1203237BFF7A06793E8C
:1002DB001203237BFF7A06793B120323AF19EF75C9
:1002EB00F008A4246CF8121049C000EF75F008A4B4
:1002FB002468F812103DD0001208007FC07E001257
:10030B0004FF7BFF7A067941120323AF19AE180263
:10031B0001877A06792D7BFF7F017E007D007C00B3
:10032B008B408A4189428F468E458D448C43E4F540
:10033B0047F548AB40AA41A94285488285478312BD
:10034B000F63601FD2A7C2A6D2A5F590C2A5054820
:10035B00E54870020547AF46AE45AD44AC431204C9
:10036B000080D0221204441204FBE4F5C8F5C9D274
:10037B00ADC2CAD2AFC2A1F55DF55CF55BF55AF51E
:10038B0061F560F55FF55EF5667567011205141290
:10039B0000DA120214E5654564600A12047FE4F585
:1003AB0064F56580F01204B91200031204DA80DFE1
:1003BB008E3E8F3F1204FB7F7F7E001204FF7A0577
:1003CB0079F11203217FC07E001204FFE53F640127
:1003DB00453E70087BFF7A0579FC800EE53F640291
:1003EB00453E700E7BFF7A06790D7F01FEFDFC12F8
:1003FB00032B0205418F4C8E4B8D4A8C49E4755073
:10040B0001F54FF54EF54DAF4CAE4BAD4AAC49AB8C
:10041B0050AA4FA94EA84DD3121027501BE4FAF93E
:10042B00F8E5502401F550EA354FF54FE9354EF517
:10043B004EE8354DF54D80CF2278187C007D007B42
:10044B00FF7A0679597E007F06120F3DE4F51EF503
:10045B001FE51F25E02418F8E6FE08E6FF1204FF4F
:10046B00051FE51F7002051EC39402E51E648094F0
:10047B008040DE227F807E001204FFE47BE87A035B
:10048B00F9F8AF5DAE5CAD5BAC5A1205AD12080C62
:10049B007BFF7A067934120323E47BE87A03F9F8BD
:1004AB00AF61AE60AD5FAC5E1205AD02080C308083
:1004BB001DE4F558F559F554F555F562F563C2CAC7
:1004CB00F552F553F55112029B3080E280FB22303E
:1004DB00841DE55345527007F5527553098008E5A5
:1004EB005315537002155212029B3084E280FB228B
:1004FB007F017E00C2A7C2A6D2A58F90C2A57F02A4
:10050B007E007D007C000204007F027E001204FF4F
:10051B007BFF7A06791E7F017E007D007C00020343
:10052B002BD2A7C2A6D2A58F90C2A5AF35AE34AD44
:10053B0033AC32020400D2A17F107E277D007C00F9
:10054B00120400C2A12220506800000384000000A6
:10055B000A000007080000000500000E1000000054
:10056B0000000015180000001E00001C20000000F9
:10057B000A0000012C0000000300000258000000DC
:10058B00020000096000000005000000B40000003C
:10059B000200000A8C00000001026600010256FFF7
:1005AB00FF00C2D5E830E70FB2D5E4C39BFBE49A5A
:1005BB00FAE499F9E498F8EC30E717B2D51205E3B1
:1005CB001210E7E4C39BFBE49AFAE499F9E498F878
:1005DB0080031210E730D50DE4C39FFFE49EFEE4C9
:1005EB009DFDE49CFC222047616D65204F76657272
:1005FB0000506C617965722031206C6F7374202010
:10060B002000506C617965722032206C6F737420FE
:10061B0020200020436865737320636C6F636B004D
:10062B0020003A00300030300020202D2D202000FB
:10063B002020002D2D00536574206D6F64653A20CA
:10064B000053657420706C617965723A2000000C60
:04065B00003800065D
:10080000EF2BFFEE3AFEED39FDEC38FC8F1D8E1C10
:100810008D1B8C1AE47B3CFAF9F81205ADAC00ADE7
:1008200001AE02AF038F218E208D1F8C1EE47B3C16
:10083000FAF9F8AF1DAE1CAD1BAC1A1205ADE47B86
:100840003CFAF9F81205ADAC00AD01AE02AF038F72
:10085000258E248D238C22E47B107A0EF9F8AF1DAF
:10086000AE1CAD1BAC1A1205AD8F298E288D278CBE
:1008700026E4FFFEFDFCAB29AA28A927A826D3124F
:10088000102740327BFF7A06792B120323AE28AF64
:100890002912018712031DE47F0AFEFDFCAB25AA85
:1008A00024A923A822C3121027502B7BFF7A067994
:1008B0002F1203238020E47F14FEFDFCAB25AA2425
:1008C000A923A822D312102740127BFF7A06793180
:1008D00012032312031DAE24AF258048E47F0AFED5
:1008E000FDFCAB25AA24A923A822C3121027500976
:1008F0007BFF7A06792F120323AE24AF25120187DE
:1009000012031DE47F0AFEFDFCAB21AA20A91FA84B
:100910001EC312102750097BFF7A06792F1203237A
:08092000AE20AF211201872275
:100E6D00E709F608DFFA8046E709F208DFFA803E67
:100E7D0088828C83E709F0A3DFFA8032E309F60854
:100E8D00DFFA8078E309F208DFFA807088828C83BC
:100E9D00E309F0A3DFFA806489828A83E0A3F60870
:100EAD00DFFA805889828A83E0A3F208DFFA804C4A
:100EBD0080D280FA80C680D4806980F28033801021
:100ECD0080A680EA809A80A880DA80E280CA80338A
:100EDD0089828A83ECFAE493A3C8C582C8CCC58302
:100EED00CCF0A3C8C582C8CCC583CCDFE9DEE780D2
:100EFD000D89828A83E493A3F608DFF9ECFAA9F051
:100F0D00EDFB2289828A83ECFAE0A3C8C582C8CCA6
:100F1D00C583CCF0A3C8C582C8CCC583CCDFEADEBF
:100F2D00E880DB89828A83E493A3F208DFF980CC21
:100F3D0088F0EF60010E4E60C388F0ED2402B4041A
:100F4D000050B9F582EB2402B4040050AF232345C1
:100F5D008223900EBD73BB010CE58229F582E583DA
:100F6D003AF583E0225006E92582F8E622BBFE061B
:100F7D00E92582F8E222E58229F582E5833AF583B7
:100F8D00E49322EF8DF0A4A8F0CF8CF0A428CE8DA1
:100F9D00F0A42EFE22C2D5EC30E709B2D5E4C39DF4
:100FAD00FDE49CFCEE30E715B2D5E4C39FFFE49E53
:100FBD00FE121056C3E49DFDE49CFC8003121056F6
:100FCD0030D507C3E49FFFE49EFE22E88FF0A4CC4A
:100FDD008BF0A42CFCE98EF0A42CFC8AF0EDA42C53
:100FED00FCEA8EF0A4CDA8F08BF0A42DCC3825F022
:100FFD00FDE98FF0A42CCD35F0FCEB8EF0A4FEA90D
:10100D00F0EB8FF0A4CFC5F02ECD39FEE43CFCEA19
:10101D00A42DCE35F0FDE43CFC22EB9FF5F0EA9ECD
:10102D0042F0E99D42F0EC6480C864809845F0225E
:10103D00E6FC08E6FD08E6FE08E6FF22E6FB08E60C
:10104D00F908E6FA08E6CBF822BC000BBE0029EF42
:10105D008DF084FFADF022E4CCF875F008EF2FFF92
:10106D00EE33FEEC33FCEE9DEC984005FCEE9DFE60
:10107D000FD5F0E9E4CEFD22EDF8F5F0EE8420D2A7
:10108D001CFEADF075F008EF2FFFED33FD40079816
:10109D005006D5F0F222C398FD0FD5F0EA2275F077
:1010AD0008758200EF2FFFEE33FECD33CDCC33CC60
:1010BD00C58233C5829BED9AEC99E58298400CF57B
:1010CD0082EE9BFEED9AFDEC99FC0FD5F0D6E4CEA9
:1010DD00FBE4CDFAE4CCF9A88222B800C1B90059DD
:1010ED00BA002DEC8BF084CFCECDFCE5F0CBF978AA
:1010FD0018EF2FFFEE33FEED33FDEC33FCEB33FB3E
:10110D0010D703994004EB99FB0FD8E5E4F9FA22C7
:10111D007818EF2FFFEE33FEED33FDEC33FCC933C2
:10112D00C910D7059BE99A4007EC9BFCE99AF90F8A
:10113D00D8E0E4C9FAE4CCFB2275F010EF2FFFEEF6
:10114D0033FEED33FDCC33CCC833C810D7079BEC41
:10115D009AE899400AED9BFDEC9AFCE899F80FD5B9
:10116D00F0DAE4CDFBE4CCFAE4C8F922787FE4F6BA
:10117D00D8FD7581B70211C002036FE493A3F8E4A3
:10118D0093A34003F68001F208DFF48029E493A3D2
:10119D00F85407240CC8C333C4540F4420C88340EB
:1011AD0004F456800146F6DFE4800B0102040810BA
:1011BD00204080900551E47E019360BCA3FF543F15
:1011CD0030E509541FFEE493A360010ECF54C025F2
:1011DD00E060A840B8E493A3FAE493A3F8E493A3E2
:1011ED00C8C582C8CAC583CAF0A3C8C582C8CAC546
:0811FD0083CADFE9DEE780BED2
:00000001FF
